:100000000C9462000C948A000C948A000C948A0070
:100010000C948A000C948A000C948A000C948A0038
:100020000C948A000C948A000C948A000C948A0028
:100030000C948A000C948A000C948A000C948A0018
:100040000C9406030C948A000C94D4020C94AE0217
:100050000C948A000C948A000C948A000C948A00F8
:100060000C9450030C948A00000000080002010068
:100070000003040700000000000000000000000072
:10008000250028002B0000000000240027002A0083
:1000900000000000230026002900040404040404D6
:1000A0000404020202020202030303030303010227
:1000B00004081020408001020408102001020408F6
:1000C0001020B40411241FBECFEFD8E0DEBFCDBF97
:1000D00011E0A0E0B1E0E2E9F0E102C005900D928C
:1000E000AE33B107D9F722E0AEE3B1E001C01D9213
:1000F000A63AB207E1F710E0C2E6D0E004C02197CB
:10010000FE010E944108C136D107C9F70E94ED04E3
:100110000C9447080C94000008950895AF92BF9284
:10012000CF92DF92EF92FF920F931F93CF93DF93C3
:100130006C017B018B01040F151FEB015E01AE18F2
:10014000BF08C017D10759F06991D601ED91FC9114
:100150000190F081E02DC6010995892B79F7C50141
:10016000DF91CF911F910F91FF90EF90DF90CF9093
:10017000BF90AF900895FC01538D448D252F30E042
:10018000842F90E0821B930B541710F0CF960895A4
:1001900001970895FC01918D828D981761F0A28DD1
:1001A000AE0FBF2FB11D5D968C91928D9F5F9F7397
:1001B000928F90E008958FEF9FEF0895FC01918D4D
:1001C000828D981731F0828DE80FF11D858D90E0BA
:1001D00008958FEF9FEF0895FC01918D228D892F57
:1001E00090E0805C9F4F821B91098F73992708953F
:1001F0008DEF91E00E94EC0021E0892B09F420E0D2
:10020000822F089580E090E0892B29F00E94F80069
:1002100081110C9400000895FC01A48DA80FB92F42
:10022000B11DA35ABF4F2C91848D90E001968F731E
:100230009927848FA689B7892C93A089B1898C913D
:10024000837080648C93938D848D981306C002888C
:10025000F389E02D80818F7D80830895EF92FF9256
:100260000F931F93CF93DF93EC0181E0888F9B8DD9
:100270008C8D98131AC0E889F989808185FF15C093
:100280009FB7F894EE89FF896083E889F9898081B6
:100290008370806480839FBF81E090E0DF91CF9185
:1002A0001F910F91FF90EF900895F62E0B8D10E0A7
:1002B0000F5F1F4F0F731127E02E8C8D8E110CC016
:1002C0000FB607FCFACFE889F989808185FFF5CF61
:1002D000CE010E940C01F1CFEB8DEC0FFD2FF11D33
:1002E000E35AFF4FF0829FB7F8940B8FEA89FB899E
:1002F00080818062CFCFCF93DF93EC01888D8823FC
:10030000B9F0AA89BB89E889F9898C9185FD03C078
:10031000808186FD0DC00FB607FCF7CF8C9185FF5D
:10032000F2CF808185FFEDCFCE010E940C01E9CF95
:10033000DF91CF91089590E0FC01E859FF4F24919F
:10034000FC01E255FF4F3491FC01E656FF4FE4916A
:10035000EE23C9F0222339F0233001F1A8F4213033
:1003600019F1223029F1F0E0EE0FFF1FE458FF4FA2
:10037000A591B4918FB7F894EC91611126C0309596
:100380003E233C938FBF08952730A9F02830C9F051
:10039000243049F7809180008F7D03C080918000D8
:1003A0008F7780938000DFCF84B58F7784BDDBCFDC
:1003B00084B58F7DFBCF8091B0008F778093B000A4
:1003C000D2CF8091B0008F7DF9CF3E2BDACF85ED73
:1003D0008093BC008091BC0084FDFCCF1092D601BC
:1003E000089520917E01260F3327331F21323105D6
:1003F000ECF42091D601FC0190E080E0243069F01B
:1004000082E00895A0917E012191AC01425A5E4F95
:10041000A40FB52FB11D2C930196861798F38091E8
:100420007E01680F60937E0180E0089581E0089569
:100430000895E091AF018091AE01E81730F4F0E04B
:10044000E25CFE4F808190E008958FEF9FEF08956A
:100450009091AF018091AE012FEF3FEF981748F4D4
:10046000E92FF0E0E25CFE4F208130E09F5F909347
:10047000AF01C90108958091AE019091AF01891B30
:10048000990B0895CF92DF92EF92FF920F931F93F3
:10049000CF93DF937C01CB018A012091FA012223C3
:1004A00089F0EB016B01C40ED51ECC15DD0569F09A
:1004B0006991D701ED91FC910190F081E02DC70188
:1004C0000995F3CF642F0E94F101C801DF91CF910C
:1004D0001F910F91FF90EF90DF90CF900895CF93F1
:1004E000DF931F92CDB7DEB769832091FA012223F3
:1004F000F9F02091F701203258F021E030E0FC01C2
:100500003383228390E080E00F90DF91CF910895B4
:100510008091F801E82FF0E0E952FE4F9981908335
:100520008F5F8093F8018093F70181E090E0ECCF3A
:1005300061E0CE0101960E94F101F7CF90E080E0EA
:100540000895FC0101900020E9F73197AF01481BA5
:10055000590BBC018DEF91E00C948E001F920F920D
:100560000FB60F9211242F933F934F935F936F9386
:100570007F938F939F93AF93BF93EF93FF938DEFF1
:1005800091E00E940C01FF91EF91BF91AF919F917B
:100590008F917F916F915F914F913F912F910F902C
:1005A0000FBE0F901F9018951F920F920FB60F92CB
:1005B00011242F938F939F93EF93FF93E0910D025C
:1005C000F0910E028081E0911302F091140282FDFD
:1005D0001BC09081809116028F5F8F73209117024C
:1005E000821741F0E0911602F0E0E350FE4F958F44
:1005F00080931602FF91EF919F918F912F910F9011
:100600000FBE0F901F9018958081F4CF1F920F920C
:100610000FB60F9211242F933F938F939F93AF9315
:10062000BF938091A6019091A701A091A801B091DC
:10063000A9013091A50123E0230F2D3758F501962C
:10064000A11DB11D2093A5018093A6019093A70140
:10065000A093A801B093A9018091A1019091A2015A
:10066000A091A301B091A4010196A11DB11D809399
:10067000A1019093A201A093A301B093A401BF9103
:10068000AF919F918F913F912F910F900FBE0F903F
:100690001F90189526E8230F0296A11DB11DD2CFF9
:1006A0001F920F920FB60F9211242F933F934F93E7
:1006B0005F936F937F938F939F93AF93BF93EF93CA
:1006C000FF938091B900887F803609F44AC0F0F525
:1006D000883209F4A7C018F5803109F49BC0B8F43A
:1006E000882309F4F9C0883009F494C0FF91EF9190
:1006F000BF91AF919F918F917F916F915F914F913A
:100700003F912F910F900FBE0F901F901895883139
:1007100009F488C0803251F78093D40114C080342A
:1007200009F49DC040F48033B9F38833F9F680931F
:10073000D40185ECB0C0803509F485C0883509F452
:1007400096C0883499F60E94E701D0CF883909F421
:100750008CC038F5883729F050F4883611F080378E
:1007600029F683E08093D6011092A00157C0883803
:1007700009F47BC0803919F0803809F0B7CF809137
:10078000A001803208F071C0E091A00181E08E0FDD
:100790008093A0018091BB00F0E0E058FE4F808381
:1007A0003DC0803B39F0E0F4803A09F479C0883AE2
:1007B00009F09CCF84E08093D60110927F011092C3
:1007C0007E01E091AC01F091AD01099580917E012F
:1007D00081110FC081E080937E0110925E0109C0FB
:1007E000803C09F4A6CF883C09F4A3CF883B09F0EC
:1007F0007DCFE0917F0181E08E0F80937F01F0E05B
:10080000E25AFE4F80818093BB0090917F018091DE
:100810007E0129C08091B1018093BB0085EC80935B
:10082000BC0064CF9091D3018091D201981758F504
:10083000E091D30181E08E0F8093D301F0E0EE547C
:10084000FE4F8081E9CFE091D30181E08E0F80934C
:10085000D3018091BB00F0E0EE54FE4F8083909175
:10086000D3018091D2019817C8F285E8D8CFE091E2
:10087000D30181E08E0F8093D3018091BB00F0E023
:10088000EE54FE4F80838091D50181115CCF81E0D1
:100890008093B00184EA8093BC001092D60126CFE9
:1008A00085EC8093BC001092D6018091A00180322B
:1008B00030F4E091A001F0E0E058FE4F108260912A
:1008C000A00170E0E091AA01F091AB0180E891E015
:1008D00009951092A0010ACF1092D40134CFCF9283
:1008E000DF92EF92FF920F931F93E82FF92F05C02D
:1008F000015011092109310961F190819623941762
:10090000B9F305C0015011092109310911F1908194
:1009100096239413F7CFC12CD12CE12CF12C0AC0D3
:100920008FEFC81AD80AE80AF80A0C151D052E051B
:100930003F0579F080818623841791F36C2D7D2DFE
:100940008E2D9F2D1F910F91FF90EF90DF90CF90F4
:10095000089560E070E080E090E01F910F91FF90BB
:10096000EF90DF90CF900895EDEFF1E013821282C7
:1009700088EE93E0A0E0B0E084839583A683B783FC
:1009800024E031E03183208325EC30E03587248773
:1009900024EC30E03787268720EC30E0318B208B49
:1009A00021EC30E0338B228B22EC30E0358B248B32
:1009B00026EC30E0378B268B118E128E138E148E20
:1009C000EAE9F2E01382128284839583A683B783D7
:1009D00086E191E0918380830895CF93DF93CDB733
:1009E000DEB7A1970FB6F894DEBF0FBECDBF7894E7
:1009F00084B5826084BD84B5816084BD85B5826024
:100A000085BD85B5816085BD80916E0081608093D4
:100A10006E0010928100809181008260809381003D
:100A2000809181008160809381008091800081604D
:100A3000809380008091B10084608093B1008091A8
:100A4000B00081608093B00080917A0084608093D0
:100A50007A0080917A00826080937A0080917A0097
:100A6000816080937A0080917A00806880937A0018
:100A70001092C100E8EBF0E0249164EAC62E60E039
:100A8000D62EF60184918823C9F090E0880F991F33
:100A9000FC01EA57FF4FA591B491FC01E458FF4FC8
:100AA000459154913FB7F8949C91822F809598235B
:100AB0009C93FA019081892380833FBFE9EBF0E0AA
:100AC0002491E5EAF0E08491882399F090E0880F82
:100AD000991FFC01EA57FF4FA591B491FC01E4581E
:100AE000FF4F859194918FB7F894EC91E22BEC93A2
:100AF0008FBFE0910D02F0910E0282E08083E091C1
:100B00000902F0910A021082E0910B02F0910C02AE
:100B10008FEC808310921502E0911102F091120285
:100B200086E08083E0910F02F09110028081806165
:100B30008083E0910F02F0911002808188608083B1
:100B4000E0910F02F0911002808180688083E09133
:100B50000F02F091100280818F7D80831092AF018F
:100B60001092AE011092F8011092F7011092D60186
:100B700081E08093D5011092B00161E082E10E9492
:100B80009B0161E083E10E949B018091B9008E7F0F
:100B90008093B9008091B9008D7F8093B90088E47B
:100BA0008093B80085E48093BC008CE890E090933B
:100BB000AD018093AC018DE890E09093AB01809300
:100BC000AA0193E2E92EF12C2AE0822E912CA12C8D
:100BD000B12C30E0232E30E0332E60E08BE00E9419
:100BE0009B01C7010197F1F761E08BE00E949B0137
:100BF000C7010197F1F760E08BE00E949B01E8EBF1
:100C0000F0E06491F6018491E82FF0E0EE0FFF1F11
:100C1000E057FF4F8591949100E412E42FE030E01B
:100C2000462F0E946F04611571058105910529F019
:100C30006F5F7F4F8F4F9F4F9F700E94260726E95F
:100C400033E44BE05DE30E948A0720E030E040E0BF
:100C50005FE30E948A070E94EE067093FC01609396
:100C6000FB016F3F71050CF08FC021E02093FA016A
:100C7000F3E0F093F9011092F8011092F7018AE97C
:100C800092E00E946F029091F701913208F03FC00C
:100C90008091D6018111FCCF22E02093D60181E022
:100CA0008093D5018FEF8093D4011092D30190935C
:100CB000D201A7EDB1E0E2EBF1E080E0981370C063
:100CC0001092B1018091B10186608093B101809151
:100CD000B001813009F068C01092B0018091B1017B
:100CE0008093BB008091BC0083FDF8CFE5ECE093DE
:100CF000BC008091D6018230E1F38091D4018F3F16
:100D000031F08091D401803211F08091D4011092A1
:100D1000F8011092F7011092FA0184E291E00E942A
:100D2000A1024090FB015090FC01052C000C6608CC
:100D3000770877FE3DC06DE28DEF91E00E942E01B5
:100D400022273327A901241935094609570919A271
:100D50008E010F5D1F4FCA01B901A50194010E94C8
:100D60001F08605DF80162938F012115310541056F
:100D7000510589F70115110519F0C8010E94A1025A
:100D80008BE391E00E94A1022114310409F425CFE4
:100D90000E94F800882309F420CF0E9400001DCF94
:100DA0002D9121938F5F8ACFF5EEF093BC00A1CFF8
:100DB000A301920119A28E010F5D1F4FCA01B90153
:100DC000A50194010E941F08605DF80162938F01E4
:100DD000211531054105510589F7CCCF0E94F50653
:100DE0006894B1110C94840708950E94690788F0F3
:100DF0009F5798F0B92F9927B751B0F0E1F0660FDF
:100E0000771F881F991F1AF0BA95C9F714C0B1301F
:100E100091F00E948307B1E008950C948307672F37
:100E2000782F8827B85F39F0B93FCCF3869577954E
:100E30006795B395D9F73EF4909580957095619537
:100E40007F4F8F4F9F4F0895E89409C097FB3EF462
:100E500090958095709561957F4F8F4F9F4F992307
:100E6000A9F0F92F96E9BB279395F6958795779585
:100E70006795B795F111F8CFFAF4BB0F11F460FF45
:100E80001BC06F5F7F4F8F4F9F4F16C0882311F09D
:100E900096E911C0772321F09EE8872F762F05C0B1
:100EA000662371F096E8862F70E060E02AF09A954C
:100EB000660F771F881FDAF7880F9695879597F941
:100EC000089557FD9058440F551F59F05F3F71F03A
:100ED0004795880F97FB991F61F09F3F79F08795A1
:100EE0000895121613061406551FF2CF4695F1DF2A
:100EF00008C0161617061806991FF1CF86957105BA
:100F0000610508940895E894BB2766277727CB01ED
:100F100097F908950E949D070C940E080E940008FE
:100F200038F00E94070820F0952311F00C94F70781
:100F30000C94FD0711240C9484070E94610770F340
:100F4000959FC1F3950F50E0551F629FF001729F6E
:100F5000BB27F00DB11D639FAA27F00DB11DAA1F7D
:100F6000649F6627B00DA11D661F829F2227B00DCA
:100F7000A11D621F739FB00DA11D621F839FA00D55
:100F8000611D221F749F3327A00D611D231F849FA5
:100F9000600D211D822F762F6A2F11249F575040FC
:100FA0009AF0F1F088234AF0EE0FFF1FBB1F661F77
:100FB000771F881F91505040A9F79E3F510580F040
:100FC0000C94F7070C9484075F3FE4F3983ED4F346
:100FD000869577956795B795F795E7959F5FC1F7E4
:100FE000FE2B880F911D9695879597F9089597F98F
:100FF0009F6780E870E060E008959FEF80EC0895BF
:1010000000240A94161617061806090608950024E7
:101010000A9412161306140605060895092E039461
:10102000000C11F4882352F0BB0F40F4BF2B11F4D5
:1010300060FF04C06F5F7F4F8F4F9F4F0895A1E205
:101040001A2EAA1BBB1BFD010DC0AA1FBB1FEE1F42
:10105000FF1FA217B307E407F50720F0A21BB30B8D
:10106000E40BF50B661F771F881F991F1A9469F709
:1010700060957095809590959B01AC01BD01CF0165
:101080000895EE0FFF1F0590F491E02D0994F89458
:02109000FFCF90
:10109200000000002E018E00BB007B01EC00CA00A4
:1010A200DE00000000006F0242029E0218023B02B4
:1010B2002802190254686973206F6E6520697320D3
:0E10C200666F72204D6173746572000D0A0036
:107E0000112484B714BE81FFF0D085E080938100F7
:107E100082E08093C00088E18093C10086E0809377
:107E2000C20080E18093C4008EE0C9D0259A86E02C
:107E300020E33CEF91E0309385002093840096BBD3
:107E4000B09BFECF1D9AA8958150A9F7CC24DD24C4
:107E500088248394B5E0AB2EA1E19A2EF3E0BF2EE7
:107E6000A2D0813461F49FD0082FAFD0023811F036
:107E7000013811F484E001C083E08DD089C08234E0
:107E800011F484E103C0853419F485E0A6D080C0E4
:107E9000853579F488D0E82EFF2485D0082F10E0AE
:107EA000102F00270E291F29000F111F8ED06801E7
:107EB0006FC0863521F484E090D080E0DECF843638
:107EC00009F040C070D06FD0082F6DD080E0C81688
:107ED00080E7D80618F4F601B7BEE895C0E0D1E017
:107EE00062D089930C17E1F7F0E0CF16F0E7DF06D8
:107EF00018F0F601B7BEE89568D007B600FCFDCFD4
:107F0000A601A0E0B1E02C9130E011968C91119780
:107F100090E0982F8827822B932B1296FA010C0160
:107F200087BEE89511244E5F5F4FF1E0A038BF0790
:107F300051F7F601A7BEE89507B600FCFDCF97BE46
:107F4000E89526C08437B1F42ED02DD0F82E2BD052
:107F50003CD0F601EF2C8F010F5F1F4F84911BD097
:107F6000EA94F801C1F70894C11CD11CFA94CF0C13
:107F7000D11C0EC0853739F428D08EE10CD085E9AC
:107F80000AD08FE07ACF813511F488E018D01DD067
:107F900080E101D065CF982F8091C00085FFFCCF94
:107FA0009093C60008958091C00087FFFCCF809118
:107FB000C00084FD01C0A8958091C6000895E0E648
:107FC000F0E098E1908380830895EDDF803219F02E
:107FD00088E0F5DFFFCF84E1DECF1F93182FE3DFCA
:107FE0001150E9F7F2DF1F91089580E0E8DFEE27F6
:047FF000FF270994CA
:027FFE00040479
:0400000300007E007B
:00000001FF
