:100000000C945D000C9485000C9485000C94850084
:100010000C9485000C9485000C9485000C9485004C
:100020000C9485000C9485000C9485000C9485003C
:100030000C9485000C9485000C9485000C9485002C
:100040000C944B030C9485000C9419030C94F3024C
:100050000C9485000C9485000C9485000C9485000C
:100060000C9495030C948500000000080002010028
:100070000003040700000000000000000000000072
:10008000250028002B0000000000240027002A0083
:10009000040404040404040402020202020203032E
:1000A0000303030301020408102040800102040836
:1000B0001020010204081020B40411241FBECFEF49
:1000C000D8E0DEBFCDBF11E0A0E0B1E0EEEEFCE095
:1000D00002C005900D92AE33B107D9F722E0AEE32E
:1000E000B1E001C01D92A638B207E1F710E0CDE5FE
:1000F000D0E004C02197FE010E946F06CC35D107E5
:10010000C9F70E94ED040C9475060C940000089544
:10011000CF93DF93AC01E091D901F091DA013097F0
:10012000F1F09091D8018091D7019817C0F090E03C
:10013000292F30E02617370754F4D901A25CBE4FAF
:10014000240F351FE90128812C939F5FF1CF109276
:10015000D8016093D701CB01DF91CF910994DF9152
:10016000CF910895AF92BF92CF92DF92EF92FF921C
:100170000F931F93CF93DF936C017B018B01040FCF
:10018000151FEB015E01AE18BF08C017D10759F06B
:100190006991D601ED91FC910190F081E02DC601AD
:1001A0000995892B79F7C501DF91CF911F910F91A7
:1001B000FF90EF90DF90CF90BF90AF900895FC013B
:1001C000538D448D252F30E0842F90E0821B930BBC
:1001D000541710F0CF96089501970895FC01918D62
:1001E000828D981761F0A28DAE0FBF2FB11D5D9665
:1001F0008C91928D9F5F9F73928F90E008958FEF07
:100200009FEF0895FC01918D828D981731F0828DBA
:10021000E80FF11D858D90E008958FEF9FEF089511
:10022000FC01918D228D892F90E0805C9F4F821B75
:1002300091098F73992708958DED91E00E94100127
:1002400021E0892B09F420E0822F089580E090E0DE
:10025000892B29F00E941C0181110C940000089543
:10026000FC01A48DA80FB92FB11DA35ABF4F2C912B
:10027000848D90E001968F739927848FA689B78922
:100280002C93A089B1898C91837080648C93938D19
:10029000848D981306C00288F389E02D80818F7DBC
:1002A00080830895EF92FF920F931F93CF93DF9374
:1002B000EC0181E0888F9B8D8C8D98131AC0E889A2
:1002C000F989808185FF15C09FB7F894EE89FF8971
:1002D0006083E889F98980818370806480839FBF0F
:1002E00081E090E0DF91CF911F910F91FF90EF900F
:1002F0000895F62E0B8D10E00F5F1F4F0F7311271F
:10030000E02E8C8D8E110CC00FB607FCFACFE88959
:10031000F989808185FFF5CFCE010E943001F1CFB0
:10032000EB8DEC0FFD2FF11DE35AFF4FF0829FB7CD
:10033000F8940B8FEA89FB8980818062CFCFCF93BD
:10034000DF93EC01888D8823B9F0AA89BB89E889FD
:10035000F9898C9185FD03C0808186FD0DC00FB6A3
:1003600007FCF7CF8C9185FFF2CF808185FFEDCF21
:10037000CE010E943001E9CFDF91CF91089590E046
:10038000FC01E859FF4F2491FC01EC55FF4F3491DB
:10039000FC01E057FF4FE491EE23C9F0222339F02E
:1003A000233001F1A8F4213019F1223029F1F0E0D5
:1003B000EE0FFF1FE458FF4FA591B4918FB7F8944B
:1003C000EC91611126C030953E233C938FBF089578
:1003D0002730A9F02830C9F0243049F780918000F7
:1003E0008F7D03C0809180008F7780938000DFCF66
:1003F00084B58F7784BDDBCF84B58F7DFBCF8091B3
:10040000B0008F778093B000D2CF8091B0008F7D05
:10041000F9CF3E2BDACF3FB7F8948091CA01909183
:10042000CB01A091CC01B091CD0126B5A89B05C010
:100430002F3F19F00196A11DB11D3FBFBA2FA92F63
:10044000982F8827BC01CD01620F711D811D911D60
:1004500042E0660F771F881F991F4A95D1F70895CC
:100460008F929F92AF92BF92CF92DF92EF92FF92C4
:100470006B017C010E940B024B015C01C114D10491
:10048000E104F104B9F00E940B02681979098A09A4
:100490009B09683E73408105910580F321E0C21AF3
:1004A000D108E108F10888EE880E83E0981EA11CAF
:1004B000B11CE4CFFF90EF90DF90CF90BF90AF9052
:1004C0009F908F90089585ED8093BC008091BC0033
:1004D00084FDFCCF1092D401089520917E01260F57
:1004E0003327331F21323105ECF42091D401FC0174
:1004F00090E080E0243069F082E00895A0917E01D0
:100500002191AC01425A5E4FA40FB52FB11D2C931F
:100510000196861798F380917E01680F60937E01A3
:1005200080E0089581E008950895E091D8018091D8
:10053000D701E81730F4F0E0E25CFE4F808190E0F4
:1005400008958FEF9FEF08959091D8018091D70182
:100550002FEF3FEF981748F4E92FF0E0E25CFE4FF1
:10056000208130E09F5F9093D801C90108958AE708
:1005700092E00E94A4029093DC018093DB01089535
:100580008091D7019091D801891B990B0895CF9341
:10059000DF93CB01EA01642F0E946D02CE01DF914F
:1005A000CF910895CF93DF931F92CDB7DEB76983C4
:1005B00061E0CE0101960E946D0281E090E00F9013
:1005C000DF91CF91089590E080E00895FC010190C3
:1005D0000020E9F73197AF01481B590BBC018DEDA5
:1005E00091E00C94B2001F920F920FB60F9211245B
:1005F0002F933F934F935F936F937F938F939F932B
:10060000AF93BF93EF93FF938DED91E00E94300184
:10061000FF91EF91BF91AF919F918F917F916F91DA
:100620005F914F913F912F910F900FBE0F901F90B0
:1006300018951F920F920FB60F9211242F938F933C
:100640009F93EF93FF93E091ED01F091EE01808194
:10065000E091F301F091F40182FD1BC09081809143
:10066000F6018F5F8F732091F701821741F0E091BF
:10067000F601F0E0E352FE4F958F8093F601FF9173
:10068000EF919F918F912F910F900FBE0F901F9020
:1006900018958081F4CF1F920F920FB60F921124FC
:1006A0002F933F938F939F93AF93BF938091C601F6
:1006B0009091C701A091C801B091C9013091C501C5
:1006C00023E0230F2D3758F50196A11DB11D20936E
:1006D000C5018093C6019093C701A093C801B09350
:1006E000C9018091CA019091CB01A091CC01B09138
:1006F000CD010196A11DB11D8093CA019093CB013C
:10070000A093CC01B093CD01BF91AF919F918F91F8
:100710003F912F910F900FBE0F901F90189526E8D4
:10072000230F0296A11DB11DD2CF1F920F920FB6BB
:100730000F9211242F933F934F935F936F937F9367
:100740008F939F93AF93BF93EF93FF938091B900E3
:10075000887F803609F44AC0F0F5883209F4A7C0D2
:1007600018F5803109F49BC0B8F4882309F4F9C066
:10077000883009F494C0FF91EF91BF91AF919F91A0
:100780008F917F916F915F914F913F912F910F903A
:100790000FBE0F901F901895883109F488C08032E1
:1007A00051F78093A10114C0803409F49DC040F436
:1007B0008033B9F38833F9F68093A10185ECB0C09A
:1007C000803509F485C0883509F496C0883499F6D7
:1007D0000E946302D0CF883909F48CC038F588377D
:1007E00029F050F4883611F0803729F683E08093A1
:1007F000D4011092A00157C0883809F47BC0803919
:1008000019F0803809F0B7CF8091A001803208F04C
:1008100071C0E091A00181E08E0F8093A0018091D2
:10082000BB00F0E0E058FE4F80833DC0803B39F0D4
:10083000E0F4803A09F479C0883A09F09CCF84E06A
:100840008093D40110927F0110927E01E091D0013B
:10085000F091D101099580917E0181110FC081E055
:1008600080937E0110925E0109C0803C09F4A6CFFE
:10087000883C09F4A3CF883B09F07DCFE0917F014C
:1008800081E08E0F80937F01F0E0E25AFE4F80817D
:100890008093BB0090917F0180917E0129C080915F
:1008A000C4018093BB0085EC8093BC0064CF909121
:1008B000C3018091C201981758F5E091C30181E00E
:1008C0008E0F8093C301F0E0EE55FE4F8081E9CF9B
:1008D000E091C30181E08E0F8093C3018091BB0042
:1008E000F0E0EE55FE4F80839091C3018091C201EC
:1008F0009817C8F285E8D8CFE091C30181E08E0F48
:100900008093C3018091BB00F0E0EE55FE4F8083E1
:100910008091D30181115CCF81E08093D20184EA80
:100920008093BC001092D40126CF85EC8093BC004C
:100930001092D4018091A001803230F4E091A001A6
:10094000F0E0E058FE4F10826091A00170E0E0916D
:10095000CE01F091CF0180E891E009951092A001BD
:100960000ACF1092A10134CFEDEDF1E01382128293
:1009700088EE93E0A0E0B0E084839583A683B783FC
:1009800024E031E03183208325EC30E03587248773
:1009900024EC30E03787268720EC30E0318B208B49
:1009A00021EC30E0338B228B22EC30E0358B248B32
:1009B00026EC30E0378B268B118E128E138E148E20
:1009C000EAE7F2E01382128284839583A683B783D9
:1009D00086E191E0918380830895CF93DF93CDB733
:1009E000DEB7A1970FB6F894DEBF0FBECDBF7894E7
:1009F00084B5826084BD84B5816084BD85B5826024
:100A000085BD85B5816085BD80916E0081608093D4
:100A10006E0010928100809181008260809381003D
:100A2000809181008160809381008091800081604D
:100A3000809380008091B10084608093B1008091A8
:100A4000B00081608093B00080917A0084608093D0
:100A50007A0080917A00826080937A0080917A0097
:100A6000816080937A0080917A00806880937A0018
:100A70001092C1001092D8011092D7011092D601A5
:100A80001092D5011092D40181E08093D30110928D
:100A9000D20161E082E10E94BF0161E083E10E9436
:100AA000BF018091B9008E7F8093B9008091B90019
:100AB0008D7F8093B90088E48093B80085E48093AB
:100AC000BC0087E890E09093D1018093D00188E842
:100AD00090E09093CF018093CE0186E08093BA009E
:100AE00027EB32E03093DA012093D901E091ED0158
:100AF000F091EE0192E09083E091E901F091EA013A
:100B00001082E091EB01F091EC019FEC9083109248
:100B1000F501E091F101F091F2018083E091EF01A4
:100B2000F091F001808180618083E091EF01F0918C
:100B3000F001808188608083E091EF01F091F00105
:100B4000808180688083E091EF01F091F0018081E5
:100B50008F7D8083E8EAF0E02491E4E9F0E084917D
:100B6000882399F090E0880F991FFC01EA57FF4F06
:100B7000A591B491FC01E458FF4F859194918FB7F2
:100B8000F894EC91E22BEC938FBF00E010E0C09062
:100B9000DB01D090DC018FEFC816D1040CF056C0F9
:100BA00061E084E00E94BF010D2C000CEE08FF08FC
:100BB000C701B6010E94300260E084E00E94BF01DC
:100BC000C701B6010E94300284E291E00E94E60271
:100BD000C090DB01D090DC010D2C000CEE08FF086A
:100BE000F7FE40C06DE28DED91E00E945201222798
:100BF0003327A9012C193D094E095F0919A2FE01ED
:100C0000B1967F019AE0892E912CA12CB12CCA01BA
:100C1000B901A50194010E944D06605DF701629340
:100C20007F01211531054105510589F7E114F104D2
:100C300019F0C7010E94E6028AE391E00E94E602F1
:100C40006AE070E080E090E00E943002011511053A
:100C500009F49DCF0E941C01882309F498CF0E94BB
:100C6000000095CFA701960119A2CE0181967C01C3
:100C70008AE0882E912CA12CB12CCA01B901A501C2
:100C800094010E944D06605DF70162937F0121157A
:100C900031054105510589F7C9CFA1E21A2EAA1BDA
:100CA000BB1BFD010DC0AA1FBB1FEE1FFF1FA2171C
:100CB000B307E407F50720F0A21BB30BE40BF50B19
:100CC000661F771F881F991F1A9469F760957095A2
:100CD000809590959B01AC01BD01CF010895EE0F69
:0E0CE000FF1F0590F491E02D0994F894FFCFCA
:100CEE00000000005201B200DF009F011001EE0073
:100CFE00020100000000D202C702E3029402C00209
:100D0E00A402950254686973206F6E652069732082
:0E0D1E00666F7220536C617665000D0A00004E
:107E0000112484B714BE81FFF0D085E080938100F7
:107E100082E08093C00088E18093C10086E0809377
:107E2000C20080E18093C4008EE0C9D0259A86E02C
:107E300020E33CEF91E0309385002093840096BBD3
:107E4000B09BFECF1D9AA8958150A9F7CC24DD24C4
:107E500088248394B5E0AB2EA1E19A2EF3E0BF2EE7
:107E6000A2D0813461F49FD0082FAFD0023811F036
:107E7000013811F484E001C083E08DD089C08234E0
:107E800011F484E103C0853419F485E0A6D080C0E4
:107E9000853579F488D0E82EFF2485D0082F10E0AE
:107EA000102F00270E291F29000F111F8ED06801E7
:107EB0006FC0863521F484E090D080E0DECF843638
:107EC00009F040C070D06FD0082F6DD080E0C81688
:107ED00080E7D80618F4F601B7BEE895C0E0D1E017
:107EE00062D089930C17E1F7F0E0CF16F0E7DF06D8
:107EF00018F0F601B7BEE89568D007B600FCFDCFD4
:107F0000A601A0E0B1E02C9130E011968C91119780
:107F100090E0982F8827822B932B1296FA010C0160
:107F200087BEE89511244E5F5F4FF1E0A038BF0790
:107F300051F7F601A7BEE89507B600FCFDCF97BE46
:107F4000E89526C08437B1F42ED02DD0F82E2BD052
:107F50003CD0F601EF2C8F010F5F1F4F84911BD097
:107F6000EA94F801C1F70894C11CD11CFA94CF0C13
:107F7000D11C0EC0853739F428D08EE10CD085E9AC
:107F80000AD08FE07ACF813511F488E018D01DD067
:107F900080E101D065CF982F8091C00085FFFCCF94
:107FA0009093C60008958091C00087FFFCCF809118
:107FB000C00084FD01C0A8958091C6000895E0E648
:107FC000F0E098E1908380830895EDDF803219F02E
:107FD00088E0F5DFFFCF84E1DECF1F93182FE3DFCA
:107FE0001150E9F7F2DF1F91089580E0E8DFEE27F6
:047FF000FF270994CA
:027FFE00040479
:0400000300007E007B
:00000001FF
